{
  "_format": "hh-sol-artifact-1",
  "contractName": "SharpshooterPass",
  "sourceName": "contracts/SharpshooterPass.sol",
  "abi": [
    {
      "inputs": [
        {
          "internalType": "address",
          "name": "initialOwner",
          "type": "address"
        },
        {
          "internalType": "string",
          "name": "uri",
          "type": "string"
        },
        {
          "internalType": "bytes32",
          "name": "_secretKey",
          "type": "bytes32"
        }
      ],
      "stateMutability": "nonpayable",
      "type": "constructor"
    },
    {
      "inputs": [
        {
          "internalType": "address",
          "name": "sender",
          "type": "address"
        },
        {
          "internalType": "uint256",
          "name": "balance",
          "type": "uint256"
        },
        {
          "internalType": "uint256",
          "name": "needed",
          "type": "uint256"
        },
        {
          "internalType": "uint256",
          "name": "tokenId",
          "type": "uint256"
        }
      ],
      "name": "ERC1155InsufficientBalance",
      "type": "error"
    },
    {
      "inputs": [
        {
          "internalType": "address",
          "name": "approver",
          "type": "address"
        }
      ],
      "name": "ERC1155InvalidApprover",
      "type": "error"
    },
    {
      "inputs": [
        {
          "internalType": "uint256",
          "name": "idsLength",
          "type": "uint256"
        },
        {
          "internalType": "uint256",
          "name": "valuesLength",
          "type": "uint256"
        }
      ],
      "name": "ERC1155InvalidArrayLength",
      "type": "error"
    },
    {
      "inputs": [
        {
          "internalType": "address",
          "name": "operator",
          "type": "address"
        }
      ],
      "name": "ERC1155InvalidOperator",
      "type": "error"
    },
    {
      "inputs": [
        {
          "internalType": "address",
          "name": "receiver",
          "type": "address"
        }
      ],
      "name": "ERC1155InvalidReceiver",
      "type": "error"
    },
    {
      "inputs": [
        {
          "internalType": "address",
          "name": "sender",
          "type": "address"
        }
      ],
      "name": "ERC1155InvalidSender",
      "type": "error"
    },
    {
      "inputs": [
        {
          "internalType": "address",
          "name": "operator",
          "type": "address"
        },
        {
          "internalType": "address",
          "name": "owner",
          "type": "address"
        }
      ],
      "name": "ERC1155MissingApprovalForAll",
      "type": "error"
    },
    {
      "inputs": [
        {
          "internalType": "address",
          "name": "owner",
          "type": "address"
        }
      ],
      "name": "OwnableInvalidOwner",
      "type": "error"
    },
    {
      "inputs": [
        {
          "internalType": "address",
          "name": "account",
          "type": "address"
        }
      ],
      "name": "OwnableUnauthorizedAccount",
      "type": "error"
    },
    {
      "anonymous": false,
      "inputs": [
        {
          "indexed": true,
          "internalType": "address",
          "name": "account",
          "type": "address"
        },
        {
          "indexed": true,
          "internalType": "address",
          "name": "operator",
          "type": "address"
        },
        {
          "indexed": false,
          "internalType": "bool",
          "name": "approved",
          "type": "bool"
        }
      ],
      "name": "ApprovalForAll",
      "type": "event"
    },
    {
      "anonymous": false,
      "inputs": [
        {
          "indexed": true,
          "internalType": "address",
          "name": "previousOwner",
          "type": "address"
        },
        {
          "indexed": true,
          "internalType": "address",
          "name": "newOwner",
          "type": "address"
        }
      ],
      "name": "OwnershipTransferred",
      "type": "event"
    },
    {
      "anonymous": false,
      "inputs": [
        {
          "indexed": true,
          "internalType": "address",
          "name": "operator",
          "type": "address"
        },
        {
          "indexed": true,
          "internalType": "address",
          "name": "from",
          "type": "address"
        },
        {
          "indexed": true,
          "internalType": "address",
          "name": "to",
          "type": "address"
        },
        {
          "indexed": false,
          "internalType": "uint256[]",
          "name": "ids",
          "type": "uint256[]"
        },
        {
          "indexed": false,
          "internalType": "uint256[]",
          "name": "values",
          "type": "uint256[]"
        }
      ],
      "name": "TransferBatch",
      "type": "event"
    },
    {
      "anonymous": false,
      "inputs": [
        {
          "indexed": true,
          "internalType": "address",
          "name": "operator",
          "type": "address"
        },
        {
          "indexed": true,
          "internalType": "address",
          "name": "from",
          "type": "address"
        },
        {
          "indexed": true,
          "internalType": "address",
          "name": "to",
          "type": "address"
        },
        {
          "indexed": false,
          "internalType": "uint256",
          "name": "id",
          "type": "uint256"
        },
        {
          "indexed": false,
          "internalType": "uint256",
          "name": "value",
          "type": "uint256"
        }
      ],
      "name": "TransferSingle",
      "type": "event"
    },
    {
      "anonymous": false,
      "inputs": [
        {
          "indexed": false,
          "internalType": "string",
          "name": "value",
          "type": "string"
        },
        {
          "indexed": true,
          "internalType": "uint256",
          "name": "id",
          "type": "uint256"
        }
      ],
      "name": "URI",
      "type": "event"
    },
    {
      "inputs": [
        {
          "internalType": "address",
          "name": "account",
          "type": "address"
        },
        {
          "internalType": "uint256",
          "name": "id",
          "type": "uint256"
        }
      ],
      "name": "balanceOf",
      "outputs": [
        {
          "internalType": "uint256",
          "name": "",
          "type": "uint256"
        }
      ],
      "stateMutability": "view",
      "type": "function"
    },
    {
      "inputs": [
        {
          "internalType": "address[]",
          "name": "accounts",
          "type": "address[]"
        },
        {
          "internalType": "uint256[]",
          "name": "ids",
          "type": "uint256[]"
        }
      ],
      "name": "balanceOfBatch",
      "outputs": [
        {
          "internalType": "uint256[]",
          "name": "",
          "type": "uint256[]"
        }
      ],
      "stateMutability": "view",
      "type": "function"
    },
    {
      "inputs": [
        {
          "internalType": "uint256",
          "name": "tokenId",
          "type": "uint256"
        }
      ],
      "name": "generateNFTProof",
      "outputs": [
        {
          "internalType": "bytes32",
          "name": "",
          "type": "bytes32"
        }
      ],
      "stateMutability": "view",
      "type": "function"
    },
    {
      "inputs": [
        {
          "internalType": "address",
          "name": "account",
          "type": "address"
        },
        {
          "internalType": "address",
          "name": "operator",
          "type": "address"
        }
      ],
      "name": "isApprovedForAll",
      "outputs": [
        {
          "internalType": "bool",
          "name": "",
          "type": "bool"
        }
      ],
      "stateMutability": "view",
      "type": "function"
    },
    {
      "inputs": [
        {
          "internalType": "uint256",
          "name": "tokenId",
          "type": "uint256"
        },
        {
          "internalType": "bytes32",
          "name": "proof",
          "type": "bytes32"
        }
      ],
      "name": "mintNFT",
      "outputs": [],
      "stateMutability": "nonpayable",
      "type": "function"
    },
    {
      "inputs": [],
      "name": "name",
      "outputs": [
        {
          "internalType": "string",
          "name": "",
          "type": "string"
        }
      ],
      "stateMutability": "view",
      "type": "function"
    },
    {
      "inputs": [],
      "name": "owner",
      "outputs": [
        {
          "internalType": "address",
          "name": "",
          "type": "address"
        }
      ],
      "stateMutability": "view",
      "type": "function"
    },
    {
      "inputs": [],
      "name": "renounceOwnership",
      "outputs": [],
      "stateMutability": "nonpayable",
      "type": "function"
    },
    {
      "inputs": [
        {
          "internalType": "address",
          "name": "from",
          "type": "address"
        },
        {
          "internalType": "address",
          "name": "to",
          "type": "address"
        },
        {
          "internalType": "uint256[]",
          "name": "ids",
          "type": "uint256[]"
        },
        {
          "internalType": "uint256[]",
          "name": "values",
          "type": "uint256[]"
        },
        {
          "internalType": "bytes",
          "name": "data",
          "type": "bytes"
        }
      ],
      "name": "safeBatchTransferFrom",
      "outputs": [],
      "stateMutability": "nonpayable",
      "type": "function"
    },
    {
      "inputs": [
        {
          "internalType": "address",
          "name": "from",
          "type": "address"
        },
        {
          "internalType": "address",
          "name": "to",
          "type": "address"
        },
        {
          "internalType": "uint256",
          "name": "id",
          "type": "uint256"
        },
        {
          "internalType": "uint256",
          "name": "value",
          "type": "uint256"
        },
        {
          "internalType": "bytes",
          "name": "data",
          "type": "bytes"
        }
      ],
      "name": "safeTransferFrom",
      "outputs": [],
      "stateMutability": "nonpayable",
      "type": "function"
    },
    {
      "inputs": [
        {
          "internalType": "address",
          "name": "operator",
          "type": "address"
        },
        {
          "internalType": "bool",
          "name": "approved",
          "type": "bool"
        }
      ],
      "name": "setApprovalForAll",
      "outputs": [],
      "stateMutability": "nonpayable",
      "type": "function"
    },
    {
      "inputs": [
        {
          "internalType": "bytes4",
          "name": "interfaceId",
          "type": "bytes4"
        }
      ],
      "name": "supportsInterface",
      "outputs": [
        {
          "internalType": "bool",
          "name": "",
          "type": "bool"
        }
      ],
      "stateMutability": "view",
      "type": "function"
    },
    {
      "inputs": [],
      "name": "symbol",
      "outputs": [
        {
          "internalType": "string",
          "name": "",
          "type": "string"
        }
      ],
      "stateMutability": "view",
      "type": "function"
    },
    {
      "inputs": [
        {
          "internalType": "address",
          "name": "newOwner",
          "type": "address"
        }
      ],
      "name": "transferOwnership",
      "outputs": [],
      "stateMutability": "nonpayable",
      "type": "function"
    },
    {
      "inputs": [
        {
          "internalType": "uint256",
          "name": "",
          "type": "uint256"
        }
      ],
      "name": "uri",
      "outputs": [
        {
          "internalType": "string",
          "name": "",
          "type": "string"
        }
      ],
      "stateMutability": "view",
      "type": "function"
    },
    {
      "inputs": [
        {
          "internalType": "uint256",
          "name": "tokenId",
          "type": "uint256"
        },
        {
          "internalType": "bytes32",
          "name": "proof",
          "type": "bytes32"
        }
      ],
      "name": "verifyNFTProof",
      "outputs": [
        {
          "internalType": "bool",
          "name": "",
          "type": "bool"
        }
      ],
      "stateMutability": "view",
      "type": "function"
    }
  ],
  "bytecode": "0x60c0604052601060809081526f536861727073686f6f7465725061737360801b60a052600490620000319082620001eb565b5060408051808201909152600580825264053484152560dc1b6020830152906200005c9082620001eb565b503480156200006a57600080fd5b506040516200197b3803806200197b8339810160408190526200008d91620002b7565b82826200009a81620000e2565b506001600160a01b038116620000ca57604051631e4fbdf760e01b81526000600482015260240160405180910390fd5b620000d581620000f4565b5060065550620003b69050565b6002620000f08282620001eb565b5050565b600380546001600160a01b038381166001600160a01b0319831681179093556040519116919082907f8be0079c531659141344cd1fd0a4f28419497f9722a3daafe3b4186f6b6457e090600090a35050565b634e487b7160e01b600052604160045260246000fd5b600181811c908216806200017157607f821691505b6020821081036200019257634e487b7160e01b600052602260045260246000fd5b50919050565b601f821115620001e657600081815260208120601f850160051c81016020861015620001c15750805b601f850160051c820191505b81811015620001e257828155600101620001cd565b5050505b505050565b81516001600160401b0381111562000207576200020762000146565b6200021f816200021884546200015c565b8462000198565b602080601f8311600181146200025757600084156200023e5750858301515b600019600386901b1c1916600185901b178555620001e2565b600085815260208120601f198616915b82811015620002885788860151825594840194600190910190840162000267565b5085821015620002a75787850151600019600388901b60f8161c191681555b5050505050600190811b01905550565b600080600060608486031215620002cd57600080fd5b83516001600160a01b0381168114620002e557600080fd5b602085810151919450906001600160401b03808211156200030557600080fd5b818701915087601f8301126200031a57600080fd5b8151818111156200032f576200032f62000146565b604051601f8201601f19908116603f011681019083821181831017156200035a576200035a62000146565b816040528281528a868487010111156200037357600080fd5b600093505b8284101562000397578484018601518185018701529285019262000378565b6000868483010152809750505050505050604084015190509250925092565b6115b580620003c66000396000f3fe608060405234801561001057600080fd5b50600436106100df5760003560e01c8063715018a611610087578063715018a6146101b05780638da5cb5b146101b857806395d89b41146101d1578063a22cb465146101d9578063d7a2b031146101ec578063e985e9c5146101ff578063f242432a14610212578063f2fde38b1461022557600080fd5b8062fdd58e146100e457806301ffc9a71461010a578063045a66221461012d57806306fdde03146101405780630e89341c146101555780632eb2c2d6146101685780634e1273f41461017d5780636af8582b1461019d575b600080fd5b6100f76100f2366004610ded565b610238565b6040519081526020015b60405180910390f35b61011d610118366004610e2d565b610260565b6040519015158152602001610101565b61011d61013b366004610e51565b6102b0565b6101486102f4565b6040516101019190610eb9565b610148610163366004610ecc565b610382565b61017b610176366004611028565b610416565b005b61019061018b3660046110d1565b610477565b60405161010191906111cb565b6100f76101ab366004610ecc565b61054b565b61017b610590565b6003546001600160a01b031660405161010191906111de565b6101486105a4565b61017b6101e73660046111f2565b6105b1565b61017b6101fa366004610e51565b6105c0565b61011d61020d36600461122e565b610645565b61017b610220366004611261565b610673565b61017b6102333660046112c5565b6106c3565b6000818152602081815260408083206001600160a01b03861684529091529020545b92915050565b60006001600160e01b03198216636cdb3d1360e11b148061029157506001600160e01b031982166303a24d0760e21b145b8061025a57506301ffc9a760e01b6001600160e01b031983161461025a565b600080836006546040516020016102d1929190918252602082015260400190565b60408051601f198184030181529190528051602090910120831491505092915050565b60048054610301906112e0565b80601f016020809104026020016040519081016040528092919081815260200182805461032d906112e0565b801561037a5780601f1061034f5761010080835404028352916020019161037a565b820191906000526020600020905b81548152906001019060200180831161035d57829003601f168201915b505050505081565b606060028054610391906112e0565b80601f01602080910402602001604051908101604052809291908181526020018280546103bd906112e0565b801561040a5780601f106103df5761010080835404028352916020019161040a565b820191906000526020600020905b8154815290600101906020018083116103ed57829003601f168201915b50505050509050919050565b336001600160a01b038616811480159061043757506104358682610645565b155b1561046257808660405163711bec9160e11b815260040161045992919061131a565b60405180910390fd5b61046f8686868686610701565b505050505050565b606081518351146104a85781518351604051635b05999160e01b815260048101929092526024820152604401610459565b600083516001600160401b038111156104c3576104c3610ee5565b6040519080825280602002602001820160405280156104ec578160200160208202803683370190505b50905060005b84518110156105435760208082028601015161051690602080840287010151610238565b82828151811061052857610528611334565b602090810291909101015261053c81611360565b90506104f2565b509392505050565b6000610555610768565b600654604051610572918491602001918252602082015260400190565b6040516020818303038152906040528051906020012090505b919050565b610598610768565b6105a26000610795565b565b60058054610301906112e0565b6105bc3383836107e7565b5050565b6105ca82826102b0565b6106075760405162461bcd60e51b815260206004820152600e60248201526d24b73b30b634b210383937b7b31760911b6044820152606401610459565b6000604051806020016040528060008152509050610637338460016040518060200160405280600081525061087d565b610640816108c6565b505050565b6001600160a01b03918216600090815260016020908152604080832093909416825291909152205460ff1690565b336001600160a01b038616811480159061069457506106928682610645565b155b156106b657808660405163711bec9160e11b815260040161045992919061131a565b61046f86868686866108d2565b6106cb610768565b6001600160a01b0381166106f5576000604051631e4fbdf760e01b815260040161045991906111de565b6106fe81610795565b50565b6001600160a01b03841661072b576000604051632bfa23e760e11b815260040161045991906111de565b6001600160a01b038516610754576000604051626a0d4560e21b815260040161045991906111de565b610761858585858561094c565b5050505050565b6003546001600160a01b031633146105a2573360405163118cdaa760e01b815260040161045991906111de565b600380546001600160a01b038381166001600160a01b0319831681179093556040519116919082907f8be0079c531659141344cd1fd0a4f28419497f9722a3daafe3b4186f6b6457e090600090a35050565b6001600160a01b03821661081057600060405162ced3e160e81b815260040161045991906111de565b6001600160a01b03838116600081815260016020908152604080832094871680845294825291829020805460ff191686151590811790915591519182527f17307eab39ab6107e8899845ad3d59bd9653f200f220920489ca2b5937696c31910160405180910390a3505050565b6001600160a01b0384166108a7576000604051632bfa23e760e11b815260040161045991906111de565b6000806108b4858561099f565b9150915061046f60008784848761094c565b60026105bc82826113bf565b6001600160a01b0384166108fc576000604051632bfa23e760e11b815260040161045991906111de565b6001600160a01b038516610925576000604051626a0d4560e21b815260040161045991906111de565b600080610932858561099f565b91509150610943878784848761094c565b50505050505050565b610958858585856109c7565b6001600160a01b038416156107615782513390600103610991576020848101519084015161098a838989858589610be4565b505061046f565b61046f818787878787610cf6565b6040805160018082526020820194909452808201938452606081019290925260808201905291565b80518251146109f65781518151604051635b05999160e01b815260048101929092526024820152604401610459565b3360005b8351811015610b05576020818102858101820151908501909101516001600160a01b03881615610aad576000828152602081815260408083206001600160a01b038c16845290915290205481811015610a86576040516303dee4c560e01b81526001600160a01b038a166004820152602481018290526044810183905260648101849052608401610459565b6000838152602081815260408083206001600160a01b038d16845290915290209082900390555b6001600160a01b03871615610af2576000828152602081815260408083206001600160a01b038b16845290915281208054839290610aec90849061147e565b90915550505b505080610afe90611360565b90506109fa565b508251600103610b865760208301516000906020840151909150856001600160a01b0316876001600160a01b0316846001600160a01b03167fc3d58168c5ae7397731d063d5bbf3d657854427343f4c083240f7aacaa2d0f628585604051610b77929190918252602082015260400190565b60405180910390a45050610761565b836001600160a01b0316856001600160a01b0316826001600160a01b03167f4a39dc06d4c0dbc64b70af90fd698a233a518aa5d07e595d983b8c0526c8f7fb8686604051610bd5929190611491565b60405180910390a45050505050565b6001600160a01b0384163b1561046f5760405163f23a6e6160e01b81526001600160a01b0385169063f23a6e6190610c2890899089908890889088906004016114bf565b6020604051808303816000875af1925050508015610c63575060408051601f3d908101601f19168201909252610c6091810190611504565b60015b610cc3573d808015610c91576040519150601f19603f3d011682016040523d82523d6000602084013e610c96565b606091505b508051600003610cbb5784604051632bfa23e760e11b815260040161045991906111de565b805181602001fd5b6001600160e01b0319811663f23a6e6160e01b146109435784604051632bfa23e760e11b815260040161045991906111de565b6001600160a01b0384163b1561046f5760405163bc197c8160e01b81526001600160a01b0385169063bc197c8190610d3a9089908990889088908890600401611521565b6020604051808303816000875af1925050508015610d75575060408051601f3d908101601f19168201909252610d7291810190611504565b60015b610da3573d808015610c91576040519150601f19603f3d011682016040523d82523d6000602084013e610c96565b6001600160e01b0319811663bc197c8160e01b146109435784604051632bfa23e760e11b815260040161045991906111de565b80356001600160a01b038116811461058b57600080fd5b60008060408385031215610e0057600080fd5b610e0983610dd6565b946020939093013593505050565b6001600160e01b0319811681146106fe57600080fd5b600060208284031215610e3f57600080fd5b8135610e4a81610e17565b9392505050565b60008060408385031215610e6457600080fd5b50508035926020909101359150565b6000815180845260005b81811015610e9957602081850181015186830182015201610e7d565b506000602082860101526020601f19601f83011685010191505092915050565b602081526000610e4a6020830184610e73565b600060208284031215610ede57600080fd5b5035919050565b634e487b7160e01b600052604160045260246000fd5b604051601f8201601f191681016001600160401b0381118282101715610f2357610f23610ee5565b604052919050565b60006001600160401b03821115610f4457610f44610ee5565b5060051b60200190565b600082601f830112610f5f57600080fd5b81356020610f74610f6f83610f2b565b610efb565b82815260059290921b84018101918181019086841115610f9357600080fd5b8286015b84811015610fae5780358352918301918301610f97565b509695505050505050565b600082601f830112610fca57600080fd5b81356001600160401b03811115610fe357610fe3610ee5565b610ff6601f8201601f1916602001610efb565b81815284602083860101111561100b57600080fd5b816020850160208301376000918101602001919091529392505050565b600080600080600060a0868803121561104057600080fd5b61104986610dd6565b945061105760208701610dd6565b935060408601356001600160401b038082111561107357600080fd5b61107f89838a01610f4e565b9450606088013591508082111561109557600080fd5b6110a189838a01610f4e565b935060808801359150808211156110b757600080fd5b506110c488828901610fb9565b9150509295509295909350565b600080604083850312156110e457600080fd5b82356001600160401b03808211156110fb57600080fd5b818501915085601f83011261110f57600080fd5b8135602061111f610f6f83610f2b565b82815260059290921b8401810191818101908984111561113e57600080fd5b948201945b838610156111635761115486610dd6565b82529482019490820190611143565b9650508601359250508082111561117957600080fd5b5061118685828601610f4e565b9150509250929050565b600081518084526020808501945080840160005b838110156111c0578151875295820195908201906001016111a4565b509495945050505050565b602081526000610e4a6020830184611190565b6001600160a01b0391909116815260200190565b6000806040838503121561120557600080fd5b61120e83610dd6565b91506020830135801515811461122357600080fd5b809150509250929050565b6000806040838503121561124157600080fd5b61124a83610dd6565b915061125860208401610dd6565b90509250929050565b600080600080600060a0868803121561127957600080fd5b61128286610dd6565b945061129060208701610dd6565b9350604086013592506060860135915060808601356001600160401b038111156112b957600080fd5b6110c488828901610fb9565b6000602082840312156112d757600080fd5b610e4a82610dd6565b600181811c908216806112f457607f821691505b60208210810361131457634e487b7160e01b600052602260045260246000fd5b50919050565b6001600160a01b0392831681529116602082015260400190565b634e487b7160e01b600052603260045260246000fd5b634e487b7160e01b600052601160045260246000fd5b6000600182016113725761137261134a565b5060010190565b601f82111561064057600081815260208120601f850160051c810160208610156113a05750805b601f850160051c820191505b8181101561046f578281556001016113ac565b81516001600160401b038111156113d8576113d8610ee5565b6113ec816113e684546112e0565b84611379565b602080601f83116001811461142157600084156114095750858301515b600019600386901b1c1916600185901b17855561046f565b600085815260208120601f198616915b8281101561145057888601518255948401946001909101908401611431565b508582101561146e5787850151600019600388901b60f8161c191681555b5050505050600190811b01905550565b8082018082111561025a5761025a61134a565b6040815260006114a46040830185611190565b82810360208401526114b68185611190565b95945050505050565b6001600160a01b03868116825285166020820152604081018490526060810183905260a0608082018190526000906114f990830184610e73565b979650505050505050565b60006020828403121561151657600080fd5b8151610e4a81610e17565b6001600160a01b0386811682528516602082015260a06040820181905260009061154d90830186611190565b828103606084015261155f8186611190565b905082810360808401526115738185610e73565b9897505050505050505056fea2646970667358221220a279330f226b2ebc5cf8a505681f63c49c049ed7101155c79b97bbce8493800764736f6c63430008140033",
  "linkReferences": {},
  "deployedLinkReferences": {}
}